{
  "contractName": "Cofounded",
  "abi": [
    {
      "constant": true,
      "inputs": [
        {
          "name": "",
          "type": "uint256"
        }
      ],
      "name": "cofounders",
      "outputs": [
        {
          "name": "",
          "type": "address"
        }
      ],
      "payable": false,
      "stateMutability": "view",
      "type": "function"
    },
    {
      "constant": true,
      "inputs": [
        {
          "name": "",
          "type": "address"
        }
      ],
      "name": "cofounderIndices",
      "outputs": [
        {
          "name": "",
          "type": "uint256"
        }
      ],
      "payable": false,
      "stateMutability": "view",
      "type": "function"
    },
    {
      "constant": true,
      "inputs": [],
      "name": "getCofounderCount",
      "outputs": [
        {
          "name": "",
          "type": "uint256"
        }
      ],
      "payable": false,
      "stateMutability": "view",
      "type": "function"
    },
    {
      "constant": true,
      "inputs": [],
      "name": "getCofounders",
      "outputs": [
        {
          "name": "",
          "type": "address[]"
        }
      ],
      "payable": false,
      "stateMutability": "view",
      "type": "function"
    },
    {
      "inputs": [
        {
          "name": "contractCofounders",
          "type": "address[]"
        }
      ],
      "payable": false,
      "stateMutability": "nonpayable",
      "type": "constructor"
    }
  ],
  "bytecode": "0x6060604052341561000f57600080fd5b6040516105803803806105808339810160405280805182019190505060008060008060018054806001018281610045919061023e565b9160005260206000209001600033909190916101000a81548173ffffffffffffffffffffffffffffffffffffffff021916908373ffffffffffffffffffffffffffffffffffffffff16021790555050600093505b84518460ff16101561023457848460ff168151811015156100b657fe5b906020019060200201519250600073ffffffffffffffffffffffffffffffffffffffff168373ffffffffffffffffffffffffffffffffffffffff161415801561012b57503373ffffffffffffffffffffffffffffffffffffffff168373ffffffffffffffffffffffffffffffffffffffff1614155b8015610175575060008060008573ffffffffffffffffffffffffffffffffffffffff1673ffffffffffffffffffffffffffffffffffffffff16815260200190815260200160002054145b91508115610227576001808054806001018281610192919061023e565b9160005260206000209001600086909190916101000a81548173ffffffffffffffffffffffffffffffffffffffff021916908373ffffffffffffffffffffffffffffffffffffffff160217905550039050806000808573ffffffffffffffffffffffffffffffffffffffff1673ffffffffffffffffffffffffffffffffffffffff168152602001908152602001600020819055505b8380600101945050610099565b505050505061028f565b81548183558181151161026557818360005260206000209182019101610264919061026a565b5b505050565b61028c91905b80821115610288576000816000905550600101610270565b5090565b90565b6102e28061029e6000396000f300606060405260043610610062576000357c0100000000000000000000000000000000000000000000000000000000900463ffffffff1680632add5a5014610067578063384bfacb146100ca5780633cb837511461011757806370d70e9b14610140575b600080fd5b341561007257600080fd5b61008860048080359060200190919050506101aa565b604051808273ffffffffffffffffffffffffffffffffffffffff1673ffffffffffffffffffffffffffffffffffffffff16815260200191505060405180910390f35b34156100d557600080fd5b610101600480803573ffffffffffffffffffffffffffffffffffffffff169060200190919050506101e9565b6040518082815260200191505060405180910390f35b341561012257600080fd5b61012a610201565b6040518082815260200191505060405180910390f35b341561014b57600080fd5b61015361020e565b6040518080602001828103825283818151815260200191508051906020019060200280838360005b8381101561019657808201518184015260208101905061017b565b505050509050019250505060405180910390f35b6001818154811015156101b957fe5b90600052602060002090016000915054906101000a900473ffffffffffffffffffffffffffffffffffffffff1681565b60006020528060005260406000206000915090505481565b6000600180549050905090565b6102166102a2565b600180548060200260200160405190810160405280929190818152602001828054801561029857602002820191906000526020600020905b8160009054906101000a900473ffffffffffffffffffffffffffffffffffffffff1673ffffffffffffffffffffffffffffffffffffffff168152602001906001019080831161024e575b5050505050905090565b6020604051908101604052806000815250905600a165627a7a72305820c15cb6bad3ef97e8681f7a99cb9032ce13c26a3e3ca8ec7a815446eb7a06f8520029",
  "source": "pragma solidity ^0.4.17;\n\n/// @title a non-multisignature contract with many founders/owners\n/// @author Mish Ochu\ncontract Cofounded {\n  mapping (address => uint) public cofounderIndices;\n  address[] public cofounders;\n\n\n  /// @dev restrict execution to one of original cofounder addresses\n  modifier restricted () {\n    uint cofounderIndex = cofounderIndices[msg.sender];\n    require(msg.sender == cofounders[cofounderIndex]);\n    _;\n  }\n\n  /// @notice creates the Cofounded contract instance\n  /// @dev adds up to cofounders.\n  ///      also adds  the deployment address as a cofounder\n  function Cofounded (address[] contractCofounders) public {\n    cofounders.push(msg.sender);\n    \n    for (uint8 x = 0; x < contractCofounders.length; x++) {\n      address cofounder = contractCofounders[x];\n\n      bool isValidUniqueCofounder =\n        cofounder != address(0) &&\n        cofounder != msg.sender &&\n        cofounderIndices[cofounder] == 0;\n\n            \n      // NOTE: solidity as of 0.4.20 does not have an\n      // undefined or null-like value\n      // thusly mappings return the default value of the value type\n      // for an unregistered key value\n      // an address which doesn't exist will return 0\n      // which is actually the index of the address of the first\n      // cofounder\n      if (isValidUniqueCofounder) {\n        uint256 cofounderIndex = cofounders.push(cofounder) - 1;\n        cofounderIndices[cofounder] = cofounderIndex;\n      }\n    }\n  }\n\n  /// @dev get count of cofounders\n  function getCofounderCount () public constant returns (uint256) {\n    return cofounders.length;\n  }\n\n  /// @dev get list of cofounders\n  function getCofounders () public constant returns (address[]) {\n    return cofounders;\n  }\n}\n",
  "sourcePath": "/Users/mishochu/Source/occ/occ-contracts/contracts/Cofounded.sol",
  "compiler": {
    "name": "solc",
    "version": "0.4.18+commit.9cf6e910.Emscripten.clang"
  },
  "schemaVersion": "1.0.1",
  "updatedAt": "2018-02-01T13:52:02.614Z"
}