{
  "contractName": "Cofounded",
  "abi": [
    {
      "constant": true,
      "inputs": [
        {
          "name": "",
          "type": "uint256"
        }
      ],
      "name": "cofounders",
      "outputs": [
        {
          "name": "",
          "type": "address"
        }
      ],
      "payable": false,
      "stateMutability": "view",
      "type": "function"
    },
    {
      "constant": true,
      "inputs": [
        {
          "name": "",
          "type": "address"
        }
      ],
      "name": "cofounderIds",
      "outputs": [
        {
          "name": "",
          "type": "uint256"
        }
      ],
      "payable": false,
      "stateMutability": "view",
      "type": "function"
    },
    {
      "constant": true,
      "inputs": [],
      "name": "getCofounderCount",
      "outputs": [
        {
          "name": "",
          "type": "uint256"
        }
      ],
      "payable": false,
      "stateMutability": "view",
      "type": "function"
    },
    {
      "constant": true,
      "inputs": [],
      "name": "founder",
      "outputs": [
        {
          "name": "",
          "type": "address"
        }
      ],
      "payable": false,
      "stateMutability": "view",
      "type": "function"
    },
    {
      "constant": true,
      "inputs": [],
      "name": "getCofounders",
      "outputs": [
        {
          "name": "",
          "type": "address[]"
        }
      ],
      "payable": false,
      "stateMutability": "view",
      "type": "function"
    },
    {
      "inputs": [
        {
          "name": "tokenCofounders",
          "type": "address[15]"
        }
      ],
      "payable": false,
      "stateMutability": "nonpayable",
      "type": "constructor"
    }
  ],
  "bytecode": "0x6060604052341561000f57600080fd5b6040516101e08061065b833981016040528090506000806000806002805480600101828161003d9190610293565b9160005260206000209001600033600160006101000a81548173ffffffffffffffffffffffffffffffffffffffff021916908373ffffffffffffffffffffffffffffffffffffffff1602179055909190916101000a81548173ffffffffffffffffffffffffffffffffffffffff021916908373ffffffffffffffffffffffffffffffffffffffff16021790555050600093505b600f8460ff16101561028957848460ff16600f811015156100ed57fe5b60200201519250600073ffffffffffffffffffffffffffffffffffffffff168373ffffffffffffffffffffffffffffffffffffffff161415801561017f5750600160009054906101000a900473ffffffffffffffffffffffffffffffffffffffff1673ffffffffffffffffffffffffffffffffffffffff168373ffffffffffffffffffffffffffffffffffffffff1614155b80156101c9575060008060008573ffffffffffffffffffffffffffffffffffffffff1673ffffffffffffffffffffffffffffffffffffffff16815260200190815260200160002054145b9150811561027c576001600280548060010182816101e79190610293565b9160005260206000209001600086909190916101000a81548173ffffffffffffffffffffffffffffffffffffffff021916908373ffffffffffffffffffffffffffffffffffffffff160217905550039050806000808573ffffffffffffffffffffffffffffffffffffffff1673ffffffffffffffffffffffffffffffffffffffff168152602001908152602001600020819055505b83806001019450506100d0565b50505050506102e4565b8154818355818115116102ba578183600052602060002091820191016102b991906102bf565b5b505050565b6102e191905b808211156102dd5760008160009055506001016102c5565b5090565b90565b610368806102f36000396000f30060606040526004361061006d576000357c0100000000000000000000000000000000000000000000000000000000900463ffffffff1680632add5a50146100725780632e572393146100d55780633cb83751146101225780634d853ee51461014b57806370d70e9b146101a0575b600080fd5b341561007d57600080fd5b610093600480803590602001909190505061020a565b604051808273ffffffffffffffffffffffffffffffffffffffff1673ffffffffffffffffffffffffffffffffffffffff16815260200191505060405180910390f35b34156100e057600080fd5b61010c600480803573ffffffffffffffffffffffffffffffffffffffff16906020019091905050610249565b6040518082815260200191505060405180910390f35b341561012d57600080fd5b610135610261565b6040518082815260200191505060405180910390f35b341561015657600080fd5b61015e61026e565b604051808273ffffffffffffffffffffffffffffffffffffffff1673ffffffffffffffffffffffffffffffffffffffff16815260200191505060405180910390f35b34156101ab57600080fd5b6101b3610294565b6040518080602001828103825283818151815260200191508051906020019060200280838360005b838110156101f65780820151818401526020810190506101db565b505050509050019250505060405180910390f35b60028181548110151561021957fe5b90600052602060002090016000915054906101000a900473ffffffffffffffffffffffffffffffffffffffff1681565b60006020528060005260406000206000915090505481565b6000600280549050905090565b600160009054906101000a900473ffffffffffffffffffffffffffffffffffffffff1681565b61029c610328565b600280548060200260200160405190810160405280929190818152602001828054801561031e57602002820191906000526020600020905b8160009054906101000a900473ffffffffffffffffffffffffffffffffffffffff1673ffffffffffffffffffffffffffffffffffffffff16815260200190600101908083116102d4575b5050505050905090565b6020604051908101604052806000815250905600a165627a7a72305820719693fe4029a71cc6e45270746887444406bf9e530a9de48a20f91f5a4f54990029",
  "source": "pragma solidity ^0.4.17;\n\n/// @title a non-multisignature contract with many founders/owners\n/// @author Mish Ochu\ncontract Cofounded {\n  mapping (address => uint) public cofounderIds;\n  address public founder;\n  address[] public cofounders;\n\n\n  /// @dev restrict execution to one of original cofounder addresses\n  modifier restricted () {\n    uint cofounderId = cofounderIds[msg.sender];\n    require(msg.sender == cofounders[cofounderId]);\n    _;\n  }\n\n  /// @notice creates the Cofounded contract instance\n  /// @dev adds up to (15) cofounders.\n  ///      also adds  the deployment address as a founder (a special variable)\n  ///      and as a cofounder\n  function Cofounded (address[15] tokenCofounders) public {\n    cofounders.push(founder = msg.sender);\n    \n    for (uint8 x = 0; x < tokenCofounders.length; x++) {\n      address cofounder = tokenCofounders[x];\n\n      bool isValidUniqueCofounder =\n        cofounder != address(0) &&\n        cofounder != founder &&\n        cofounderIds[cofounder] == 0;\n\n            \n      // NOTE: solidity as of 0.4.20 does not have an\n      // undefined or null-like value\n      // thusly mappings return the default value of the value type\n      // for an unregistered key value\n      // an address which doesn't exist will return 0\n      // which is actually the index of the address of the first\n      // cofounder (the founder)\n      if (isValidUniqueCofounder) {\n        uint256 cofounderId = cofounders.push(cofounder) - 1;\n        cofounderIds[cofounder] = cofounderId;\n      }\n    }\n  }\n\n  /// @dev get count of cofounders\n  function getCofounderCount () public constant returns (uint256) {\n    return cofounders.length;\n  }\n\n  /// @dev get list of cofounders\n  function getCofounders () public constant returns (address[]) {\n    return cofounders;\n  }\n}\n",
  "sourcePath": "/Users/mishochu/Source/occ/occ-contracts/contracts/Cofounded.sol",
  "compiler": {
    "name": "solc",
    "version": "0.4.18+commit.9cf6e910.Emscripten.clang"
  },
  "schemaVersion": "1.0.1",
  "updatedAt": "2018-01-25T14:53:49.981Z"
}