{
  "contractName": "Cofounded",
  "abi": [
    {
      "constant": true,
      "inputs": [
        {
          "name": "",
          "type": "uint256"
        }
      ],
      "name": "cofounders",
      "outputs": [
        {
          "name": "",
          "type": "address"
        }
      ],
      "payable": false,
      "stateMutability": "view",
      "type": "function"
    },
    {
      "constant": true,
      "inputs": [
        {
          "name": "",
          "type": "address"
        }
      ],
      "name": "cofounderIds",
      "outputs": [
        {
          "name": "",
          "type": "uint256"
        }
      ],
      "payable": false,
      "stateMutability": "view",
      "type": "function"
    },
    {
      "inputs": [
        {
          "name": "_cofounders",
          "type": "address[15]"
        }
      ],
      "payable": false,
      "stateMutability": "nonpayable",
      "type": "constructor"
    }
  ],
  "bytecode": "0x6060604052341561000f57600080fd5b6040516101e08061032883398101604052809050600080600091505b600f8260ff16101561013c57828260ff16600f8110151561004857fe5b60200201519050600073ffffffffffffffffffffffffffffffffffffffff168173ffffffffffffffffffffffffffffffffffffffff1614151561012f57600180548060010182816100999190610144565b9160005260206000209001600083909190916101000a81548173ffffffffffffffffffffffffffffffffffffffff021916908373ffffffffffffffffffffffffffffffffffffffff160217905550508160ff166000808373ffffffffffffffffffffffffffffffffffffffff1673ffffffffffffffffffffffffffffffffffffffff168152602001908152602001600020819055505b818060010192505061002b565b505050610195565b81548183558181151161016b5781836000526020600020918201910161016a9190610170565b5b505050565b61019291905b8082111561018e576000816000905550600101610176565b5090565b90565b610184806101a46000396000f30060606040526004361061004c576000357c0100000000000000000000000000000000000000000000000000000000900463ffffffff1680632add5a50146100515780632e572393146100b4575b600080fd5b341561005c57600080fd5b6100726004808035906020019091905050610101565b604051808273ffffffffffffffffffffffffffffffffffffffff1673ffffffffffffffffffffffffffffffffffffffff16815260200191505060405180910390f35b34156100bf57600080fd5b6100eb600480803573ffffffffffffffffffffffffffffffffffffffff16906020019091905050610140565b6040518082815260200191505060405180910390f35b60018181548110151561011057fe5b90600052602060002090016000915054906101000a900473ffffffffffffffffffffffffffffffffffffffff1681565b600060205280600052604060002060009150905054815600a165627a7a72305820401834b7eb1f0968f34f8ba6f54cd366e49e5b0d8e1f7d8657733b624b5d37ec0029",
  "source": "pragma solidity ^0.4.17;\n\ncontract Cofounded {\n  mapping (address => uint) public cofounderIds;\n  address[] public cofounders;\n\n\n  modifier restricted() {\n    uint cofounderId = cofounderIds[msg.sender];\n    require(cofounderId > 0 && msg.sender == cofounders[cofounderId]);\n    _;\n  }\n\n  function Cofounded(address[15] _cofounders) public {\n    for (uint8 x = 0; x < 15; x++) {\n      address cofounder = _cofounders[x];\n      if (cofounder != address(0)) {\n        cofounders.push(cofounder);\n        cofounderIds[cofounder] = x;\n      }\n    }\n  }\n}\n",
  "sourcePath": "/Users/mishochu/Source/gin-contracts/contracts/Cofounded.sol",
  "compiler": {
    "name": "solc",
    "version": "0.4.18+commit.9cf6e910.Emscripten.clang"
  },
  "schemaVersion": "1.0.1",
  "updatedAt": "2018-01-12T01:10:09.162Z"
}