{
  "contractName": "Cofounded",
  "abi": [
    {
      "constant": true,
      "inputs": [
        {
          "name": "",
          "type": "uint256"
        }
      ],
      "name": "cofounders",
      "outputs": [
        {
          "name": "",
          "type": "address"
        }
      ],
      "payable": false,
      "stateMutability": "view",
      "type": "function"
    },
    {
      "constant": true,
      "inputs": [
        {
          "name": "",
          "type": "address"
        }
      ],
      "name": "cofounderIds",
      "outputs": [
        {
          "name": "",
          "type": "uint256"
        }
      ],
      "payable": false,
      "stateMutability": "view",
      "type": "function"
    },
    {
      "constant": true,
      "inputs": [],
      "name": "getCofounderCount",
      "outputs": [
        {
          "name": "",
          "type": "uint256"
        }
      ],
      "payable": false,
      "stateMutability": "view",
      "type": "function"
    },
    {
      "inputs": [
        {
          "name": "_cofounders",
          "type": "address[15]"
        }
      ],
      "payable": false,
      "stateMutability": "nonpayable",
      "type": "constructor"
    }
  ],
  "bytecode": "0x6060604052341561000f57600080fd5b6040516101e08061036b8339810160405280905060008060008092505b600f8360ff16101561013d57838360ff16600f8110151561004957fe5b60200201519150600073ffffffffffffffffffffffffffffffffffffffff168273ffffffffffffffffffffffffffffffffffffffff1614151561013057600180805480600101828161009b9190610146565b9160005260206000209001600085909190916101000a81548173ffffffffffffffffffffffffffffffffffffffff021916908373ffffffffffffffffffffffffffffffffffffffff160217905550039050806000808473ffffffffffffffffffffffffffffffffffffffff1673ffffffffffffffffffffffffffffffffffffffff168152602001908152602001600020819055505b828060010193505061002c565b50505050610197565b81548183558181151161016d5781836000526020600020918201910161016c9190610172565b5b505050565b61019491905b80821115610190576000816000905550600101610178565b5090565b90565b6101c5806101a66000396000f300606060405260043610610057576000357c0100000000000000000000000000000000000000000000000000000000900463ffffffff1680632add5a501461005c5780632e572393146100bf5780633cb837511461010c575b600080fd5b341561006757600080fd5b61007d6004808035906020019091905050610135565b604051808273ffffffffffffffffffffffffffffffffffffffff1673ffffffffffffffffffffffffffffffffffffffff16815260200191505060405180910390f35b34156100ca57600080fd5b6100f6600480803573ffffffffffffffffffffffffffffffffffffffff16906020019091905050610174565b6040518082815260200191505060405180910390f35b341561011757600080fd5b61011f61018c565b6040518082815260200191505060405180910390f35b60018181548110151561014457fe5b90600052602060002090016000915054906101000a900473ffffffffffffffffffffffffffffffffffffffff1681565b60006020528060005260406000206000915090505481565b60006001805490509050905600a165627a7a7230582095d537b2fee13fa46c6992d77b15cf32d8f1717605497c8e3dfb64379e91dffc0029",
  "source": "pragma solidity ^0.4.17;\n\ncontract Cofounded {\n  mapping (address => uint) public cofounderIds;\n  address[] public cofounders;\n\n\n  modifier restricted () {\n    uint cofounderId = cofounderIds[msg.sender];\n    require(cofounderId > 0 && msg.sender == cofounders[cofounderId]);\n    _;\n  }\n\n  function Cofounded (address[15] _cofounders) public {\n    for (uint8 x = 0; x < 15; x++) {\n      address cofounder = _cofounders[x];\n      if (cofounder != address(0)) {\n        uint256 cofounderId = cofounders.push(cofounder) - 1;\n        cofounderIds[cofounder] = cofounderId;\n      }\n    }\n  }\n\n  function getCofounderCount () public view returns (uint256) {\n    return cofounders.length;\n  }\n}\n",
  "sourcePath": "/Users/mishochu/Source/gin-contracts/contracts/Cofounded.sol",
  "compiler": {
    "name": "solc",
    "version": "0.4.18+commit.9cf6e910.Emscripten.clang"
  },
  "schemaVersion": "1.0.1",
  "updatedAt": "2018-01-12T20:17:36.802Z"
}