{
  "contractName": "OriginalToken",
  "abi": [
    {
      "constant": true,
      "inputs": [
        {
          "name": "interfaceID",
          "type": "bytes4"
        }
      ],
      "name": "supportsInterface",
      "outputs": [
        {
          "name": "",
          "type": "bool"
        }
      ],
      "payable": false,
      "stateMutability": "view",
      "type": "function"
    },
    {
      "constant": true,
      "inputs": [],
      "name": "name",
      "outputs": [
        {
          "name": "",
          "type": "string"
        }
      ],
      "payable": false,
      "stateMutability": "view",
      "type": "function"
    },
    {
      "constant": false,
      "inputs": [
        {
          "name": "spender",
          "type": "address"
        },
        {
          "name": "value",
          "type": "uint256"
        }
      ],
      "name": "approve",
      "outputs": [
        {
          "name": "success",
          "type": "bool"
        }
      ],
      "payable": false,
      "stateMutability": "nonpayable",
      "type": "function"
    },
    {
      "constant": true,
      "inputs": [],
      "name": "totalSupply",
      "outputs": [
        {
          "name": "",
          "type": "uint256"
        }
      ],
      "payable": false,
      "stateMutability": "view",
      "type": "function"
    },
    {
      "constant": false,
      "inputs": [
        {
          "name": "from",
          "type": "address"
        },
        {
          "name": "to",
          "type": "address"
        },
        {
          "name": "value",
          "type": "uint256"
        }
      ],
      "name": "transferFrom",
      "outputs": [
        {
          "name": "success",
          "type": "bool"
        }
      ],
      "payable": false,
      "stateMutability": "nonpayable",
      "type": "function"
    },
    {
      "constant": true,
      "inputs": [
        {
          "name": "",
          "type": "address"
        }
      ],
      "name": "balances",
      "outputs": [
        {
          "name": "",
          "type": "uint256"
        }
      ],
      "payable": false,
      "stateMutability": "view",
      "type": "function"
    },
    {
      "constant": true,
      "inputs": [
        {
          "name": "",
          "type": "uint256"
        }
      ],
      "name": "cofounders",
      "outputs": [
        {
          "name": "",
          "type": "address"
        }
      ],
      "payable": false,
      "stateMutability": "view",
      "type": "function"
    },
    {
      "constant": true,
      "inputs": [
        {
          "name": "",
          "type": "address"
        }
      ],
      "name": "cofounderIds",
      "outputs": [
        {
          "name": "",
          "type": "uint256"
        }
      ],
      "payable": false,
      "stateMutability": "view",
      "type": "function"
    },
    {
      "constant": true,
      "inputs": [],
      "name": "decimals",
      "outputs": [
        {
          "name": "",
          "type": "uint8"
        }
      ],
      "payable": false,
      "stateMutability": "view",
      "type": "function"
    },
    {
      "constant": true,
      "inputs": [],
      "name": "getCofounderCount",
      "outputs": [
        {
          "name": "",
          "type": "uint256"
        }
      ],
      "payable": false,
      "stateMutability": "view",
      "type": "function"
    },
    {
      "constant": true,
      "inputs": [],
      "name": "founder",
      "outputs": [
        {
          "name": "",
          "type": "address"
        }
      ],
      "payable": false,
      "stateMutability": "view",
      "type": "function"
    },
    {
      "constant": true,
      "inputs": [
        {
          "name": "",
          "type": "address"
        },
        {
          "name": "",
          "type": "address"
        }
      ],
      "name": "allowances",
      "outputs": [
        {
          "name": "amount",
          "type": "uint256"
        },
        {
          "name": "hasBeenPartiallyWithdrawn",
          "type": "bool"
        }
      ],
      "payable": false,
      "stateMutability": "view",
      "type": "function"
    },
    {
      "constant": true,
      "inputs": [
        {
          "name": "owner",
          "type": "address"
        }
      ],
      "name": "balanceOf",
      "outputs": [
        {
          "name": "balance",
          "type": "uint256"
        }
      ],
      "payable": false,
      "stateMutability": "view",
      "type": "function"
    },
    {
      "constant": true,
      "inputs": [],
      "name": "getCofounders",
      "outputs": [
        {
          "name": "",
          "type": "address[]"
        }
      ],
      "payable": false,
      "stateMutability": "view",
      "type": "function"
    },
    {
      "constant": true,
      "inputs": [],
      "name": "symbol",
      "outputs": [
        {
          "name": "",
          "type": "string"
        }
      ],
      "payable": false,
      "stateMutability": "view",
      "type": "function"
    },
    {
      "constant": false,
      "inputs": [
        {
          "name": "from",
          "type": "address"
        },
        {
          "name": "to",
          "type": "address"
        },
        {
          "name": "value",
          "type": "uint256"
        }
      ],
      "name": "transferBalance",
      "outputs": [
        {
          "name": "",
          "type": "bool"
        }
      ],
      "payable": false,
      "stateMutability": "nonpayable",
      "type": "function"
    },
    {
      "constant": false,
      "inputs": [
        {
          "name": "to",
          "type": "address"
        },
        {
          "name": "value",
          "type": "uint256"
        }
      ],
      "name": "transfer",
      "outputs": [
        {
          "name": "",
          "type": "bool"
        }
      ],
      "payable": false,
      "stateMutability": "nonpayable",
      "type": "function"
    },
    {
      "constant": false,
      "inputs": [
        {
          "name": "spender",
          "type": "address"
        },
        {
          "name": "value",
          "type": "uint256"
        },
        {
          "name": "extraData",
          "type": "bytes"
        }
      ],
      "name": "approveAndCall",
      "outputs": [
        {
          "name": "success",
          "type": "bool"
        }
      ],
      "payable": false,
      "stateMutability": "nonpayable",
      "type": "function"
    },
    {
      "constant": true,
      "inputs": [
        {
          "name": "owner",
          "type": "address"
        },
        {
          "name": "spender",
          "type": "address"
        }
      ],
      "name": "allowance",
      "outputs": [
        {
          "name": "remaining",
          "type": "uint256"
        }
      ],
      "payable": false,
      "stateMutability": "view",
      "type": "function"
    },
    {
      "constant": true,
      "inputs": [],
      "name": "MAX_COFOUNDERS",
      "outputs": [
        {
          "name": "",
          "type": "uint8"
        }
      ],
      "payable": false,
      "stateMutability": "view",
      "type": "function"
    },
    {
      "inputs": [
        {
          "name": "tokenCofounders",
          "type": "address[15]"
        },
        {
          "name": "tokenTotalSupply",
          "type": "uint256"
        },
        {
          "name": "tokenName",
          "type": "string"
        },
        {
          "name": "tokenSymbol",
          "type": "string"
        },
        {
          "name": "tokenDecimals",
          "type": "uint8"
        }
      ],
      "payable": false,
      "stateMutability": "nonpayable",
      "type": "constructor"
    },
    {
      "anonymous": false,
      "inputs": [
        {
          "indexed": true,
          "name": "owner",
          "type": "address"
        },
        {
          "indexed": true,
          "name": "spender",
          "type": "address"
        },
        {
          "indexed": false,
          "name": "currentValue",
          "type": "uint256"
        },
        {
          "indexed": false,
          "name": "value",
          "type": "uint256"
        }
      ],
      "name": "ApprovalDenied",
      "type": "event"
    },
    {
      "anonymous": false,
      "inputs": [
        {
          "indexed": true,
          "name": "from",
          "type": "address"
        },
        {
          "indexed": true,
          "name": "to",
          "type": "address"
        },
        {
          "indexed": false,
          "name": "value",
          "type": "uint256"
        }
      ],
      "name": "Transfer",
      "type": "event"
    },
    {
      "anonymous": false,
      "inputs": [
        {
          "indexed": true,
          "name": "owner",
          "type": "address"
        },
        {
          "indexed": true,
          "name": "spender",
          "type": "address"
        },
        {
          "indexed": false,
          "name": "value",
          "type": "uint256"
        }
      ],
      "name": "Approval",
      "type": "event"
    }
  ],
  "bytecode": "0x606060405234156200001057600080fd5b60405162001ad138038062001ad1833981016040528090816101e001805190602001909190805182019190602001805182019190602001805190602001909190505084600080600080600280548060010182816200006f91906200032a565b9160005260206000209001600033600160006101000a81548173ffffffffffffffffffffffffffffffffffffffff021916908373ffffffffffffffffffffffffffffffffffffffff1602179055909190916101000a81548173ffffffffffffffffffffffffffffffffffffffff021916908373ffffffffffffffffffffffffffffffffffffffff16021790555050600093505b600f60ff168460ff161015620002c657848460ff16600f811015156200012457fe5b60200201519250600073ffffffffffffffffffffffffffffffffffffffff168373ffffffffffffffffffffffffffffffffffffffff1614158015620001b75750600160009054906101000a900473ffffffffffffffffffffffffffffffffffffffff1673ffffffffffffffffffffffffffffffffffffffff168373ffffffffffffffffffffffffffffffffffffffff1614155b801562000202575060008060008573ffffffffffffffffffffffffffffffffffffffff1673ffffffffffffffffffffffffffffffffffffffff16815260200190815260200160002054145b91508115620002b8576001600280548060010182816200022391906200032a565b9160005260206000209001600086909190916101000a81548173ffffffffffffffffffffffffffffffffffffffff021916908373ffffffffffffffffffffffffffffffffffffffff160217905550039050806000808573ffffffffffffffffffffffffffffffffffffffff1673ffffffffffffffffffffffffffffffffffffffff168152602001908152602001600020819055505b838060010194505062000102565b5050505050836006819055508260039080519060200190620002ea92919062000359565b5081600490805190602001906200030392919062000359565b5080600560006101000a81548160ff021916908360ff160217905550505050505062000408565b8154818355818115116200035457818360005260206000209182019101620003539190620003e0565b5b505050565b828054600181600116156101000203166002900490600052602060002090601f016020900481019282601f106200039c57805160ff1916838001178555620003cd565b82800160010185558215620003cd579182015b82811115620003cc578251825591602001919060010190620003af565b5b509050620003dc9190620003e0565b5090565b6200040591905b8082111562000401576000816000905550600101620003e7565b5090565b90565b6116b980620004186000396000f300606060405260043610610112576000357c0100000000000000000000000000000000000000000000000000000000900463ffffffff16806301ffc9a71461011757806306fdde0314610171578063095ea7b3146101ff57806318160ddd1461025957806323b872dd1461028257806327e235e3146102fb5780632add5a50146103485780632e572393146103ab578063313ce567146103f85780633cb83751146104275780634d853ee51461045057806355b6ed5c146104a557806370a082311461051c57806370d70e9b1461056957806395d89b41146105d3578063a606b94a14610661578063a9059cbb146106da578063cae9ca5114610734578063dd62ed3e146107d1578063dd6ae5371461083d575b600080fd5b341561012257600080fd5b61015760048080357bffffffffffffffffffffffffffffffffffffffffffffffffffffffff191690602001909190505061086c565b604051808215151515815260200191505060405180910390f35b341561017c57600080fd5b6101846108eb565b6040518080602001828103825283818151815260200191508051906020019080838360005b838110156101c45780820151818401526020810190506101a9565b50505050905090810190601f1680156101f15780820380516001836020036101000a031916815260200191505b509250505060405180910390f35b341561020a57600080fd5b61023f600480803573ffffffffffffffffffffffffffffffffffffffff16906020019091908035906020019091905050610989565b604051808215151515815260200191505060405180910390f35b341561026457600080fd5b61026c610cbe565b6040518082815260200191505060405180910390f35b341561028d57600080fd5b6102e1600480803573ffffffffffffffffffffffffffffffffffffffff1690602001909190803573ffffffffffffffffffffffffffffffffffffffff16906020019091908035906020019091905050610cc4565b604051808215151515815260200191505060405180910390f35b341561030657600080fd5b610332600480803573ffffffffffffffffffffffffffffffffffffffff16906020019091905050610f8b565b6040518082815260200191505060405180910390f35b341561035357600080fd5b6103696004808035906020019091905050610fa3565b604051808273ffffffffffffffffffffffffffffffffffffffff1673ffffffffffffffffffffffffffffffffffffffff16815260200191505060405180910390f35b34156103b657600080fd5b6103e2600480803573ffffffffffffffffffffffffffffffffffffffff16906020019091905050610fe2565b6040518082815260200191505060405180910390f35b341561040357600080fd5b61040b610ffa565b604051808260ff1660ff16815260200191505060405180910390f35b341561043257600080fd5b61043a61100d565b6040518082815260200191505060405180910390f35b341561045b57600080fd5b61046361101a565b604051808273ffffffffffffffffffffffffffffffffffffffff1673ffffffffffffffffffffffffffffffffffffffff16815260200191505060405180910390f35b34156104b057600080fd5b6104fb600480803573ffffffffffffffffffffffffffffffffffffffff1690602001909190803573ffffffffffffffffffffffffffffffffffffffff16906020019091905050611040565b60405180838152602001821515151581526020019250505060405180910390f35b341561052757600080fd5b610553600480803573ffffffffffffffffffffffffffffffffffffffff1690602001909190505061107e565b6040518082815260200191505060405180910390f35b341561057457600080fd5b61057c6110c7565b6040518080602001828103825283818151815260200191508051906020019060200280838360005b838110156105bf5780820151818401526020810190506105a4565b505050509050019250505060405180910390f35b34156105de57600080fd5b6105e661115b565b6040518080602001828103825283818151815260200191508051906020019080838360005b8381101561062657808201518184015260208101905061060b565b50505050905090810190601f1680156106535780820380516001836020036101000a031916815260200191505b509250505060405180910390f35b341561066c57600080fd5b6106c0600480803573ffffffffffffffffffffffffffffffffffffffff1690602001909190803573ffffffffffffffffffffffffffffffffffffffff169060200190919080359060200190919050506111f9565b604051808215151515815260200191505060405180910390f35b34156106e557600080fd5b61071a600480803573ffffffffffffffffffffffffffffffffffffffff169060200190919080359060200190919050506113a4565b604051808215151515815260200191505060405180910390f35b341561073f57600080fd5b6107b7600480803573ffffffffffffffffffffffffffffffffffffffff1690602001909190803590602001909190803590602001908201803590602001908080601f0160208091040260200160405190810160405280939291908181526020018383808284378201915050505050509190505061146c565b604051808215151515815260200191505060405180910390f35b34156107dc57600080fd5b610827600480803573ffffffffffffffffffffffffffffffffffffffff1690602001909190803573ffffffffffffffffffffffffffffffffffffffff169060200190919050506115ea565b6040518082815260200191505060405180910390f35b341561084857600080fd5b610850611674565b604051808260ff1660ff16815260200191505060405180910390f35b600060405180807f737570706f727473496e74657266616365286279746573342900000000000000815250601901905060405180910390207bffffffffffffffffffffffffffffffffffffffffffffffffffffffff1916827bffffffffffffffffffffffffffffffffffffffffffffffffffffffff1916149050919050565b60038054600181600116156101000203166002900480601f0160208091040260200160405190810160405280929190818152602001828054600181600116156101000203166002900480156109815780601f1061095657610100808354040283529160200191610981565b820191906000526020600020905b81548152906001019060200180831161096457829003601f168201915b505050505081565b600080600860003373ffffffffffffffffffffffffffffffffffffffff1673ffffffffffffffffffffffffffffffffffffffff16815260200190815260200160002060008573ffffffffffffffffffffffffffffffffffffffff1673ffffffffffffffffffffffffffffffffffffffff16815260200190815260200160002090506000831415610b1c57600860003373ffffffffffffffffffffffffffffffffffffffff1673ffffffffffffffffffffffffffffffffffffffff16815260200190815260200160002060008573ffffffffffffffffffffffffffffffffffffffff1673ffffffffffffffffffffffffffffffffffffffff1681526020019081526020016000206000808201600090556001820160006101000a81549060ff021916905550508373ffffffffffffffffffffffffffffffffffffffff163373ffffffffffffffffffffffffffffffffffffffff167f8c5be1e5ebec7d5bd14f71427d1e84f3dd0314c0f7b2291e5b200ac8c7c3b925856040518082815260200191505060405180910390a360019150610cb7565b8060010160009054906101000a900460ff1615610c4857600860003373ffffffffffffffffffffffffffffffffffffffff1673ffffffffffffffffffffffffffffffffffffffff16815260200190815260200160002060008573ffffffffffffffffffffffffffffffffffffffff1673ffffffffffffffffffffffffffffffffffffffff1681526020019081526020016000206000808201600090556001820160006101000a81549060ff021916905550508373ffffffffffffffffffffffffffffffffffffffff163373ffffffffffffffffffffffffffffffffffffffff167f8e5b20b759a344163a5384df8ad0a0de915a6cf52f608c31f5f86728fc167c1e836000015486604051808381526020018281526020019250505060405180910390a360009150610cb7565b8281600001819055508373ffffffffffffffffffffffffffffffffffffffff163373ffffffffffffffffffffffffffffffffffffffff167f8c5be1e5ebec7d5bd14f71427d1e84f3dd0314c0f7b2291e5b200ac8c7c3b925856040518082815260200191505060405180910390a35b5092915050565b60065481565b600080600860008673ffffffffffffffffffffffffffffffffffffffff1673ffffffffffffffffffffffffffffffffffffffff16815260200190815260200160002060003373ffffffffffffffffffffffffffffffffffffffff1673ffffffffffffffffffffffffffffffffffffffff168152602001908152602001600020905082600760008773ffffffffffffffffffffffffffffffffffffffff1673ffffffffffffffffffffffffffffffffffffffff1681526020019081526020016000205410158015610d98575082816000015410155b1515610da357600080fd5b600081600001541415610e5057600860008673ffffffffffffffffffffffffffffffffffffffff1673ffffffffffffffffffffffffffffffffffffffff16815260200190815260200160002060003373ffffffffffffffffffffffffffffffffffffffff1673ffffffffffffffffffffffffffffffffffffffff1681526020019081526020016000206000808201600090556001820160006101000a81549060ff02191690555050610e80565b60018160010160006101000a81548160ff0219169083151502179055508281600001600082825403925050819055505b82600760008673ffffffffffffffffffffffffffffffffffffffff1673ffffffffffffffffffffffffffffffffffffffff1681526020019081526020016000206000828254019250508190555082600760008773ffffffffffffffffffffffffffffffffffffffff1673ffffffffffffffffffffffffffffffffffffffff168152602001908152602001600020600082825403925050819055508373ffffffffffffffffffffffffffffffffffffffff168573ffffffffffffffffffffffffffffffffffffffff167fddf252ad1be2c89b69c2b068fc378daa952ba7f163c4a11628f55a4df523b3ef856040518082815260200191505060405180910390a360019150509392505050565b60076020528060005260406000206000915090505481565b600281815481101515610fb257fe5b90600052602060002090016000915054906101000a900473ffffffffffffffffffffffffffffffffffffffff1681565b60006020528060005260406000206000915090505481565b600560009054906101000a900460ff1681565b6000600280549050905090565b600160009054906101000a900473ffffffffffffffffffffffffffffffffffffffff1681565b6008602052816000526040600020602052806000526040600020600091509150508060000154908060010160009054906101000a900460ff16905082565b6000600760008373ffffffffffffffffffffffffffffffffffffffff1673ffffffffffffffffffffffffffffffffffffffff168152602001908152602001600020549050919050565b6110cf611679565b600280548060200260200160405190810160405280929190818152602001828054801561115157602002820191906000526020600020905b8160009054906101000a900473ffffffffffffffffffffffffffffffffffffffff1673ffffffffffffffffffffffffffffffffffffffff1681526020019060010190808311611107575b5050505050905090565b60048054600181600116156101000203166002900480601f0160208091040260200160405190810160405280929190818152602001828054600181600116156101000203166002900480156111f15780601f106111c6576101008083540402835291602001916111f1565b820191906000526020600020905b8154815290600101906020018083116111d457829003601f168201915b505050505081565b6000806000600760008773ffffffffffffffffffffffffffffffffffffffff1673ffffffffffffffffffffffffffffffffffffffff168152602001908152602001600020549150600760008673ffffffffffffffffffffffffffffffffffffffff1673ffffffffffffffffffffffffffffffffffffffff16815260200190815260200160002054905083821015151561129157600080fd5b838203915083810190508381101515156112aa57600080fd5b81600760008873ffffffffffffffffffffffffffffffffffffffff1673ffffffffffffffffffffffffffffffffffffffff1681526020019081526020016000208190555080600760008773ffffffffffffffffffffffffffffffffffffffff1673ffffffffffffffffffffffffffffffffffffffff168152602001908152602001600020819055508473ffffffffffffffffffffffffffffffffffffffff168673ffffffffffffffffffffffffffffffffffffffff167fddf252ad1be2c89b69c2b068fc378daa952ba7f163c4a11628f55a4df523b3ef866040518082815260200191505060405180910390a36001925050509392505050565b60008073ffffffffffffffffffffffffffffffffffffffff168373ffffffffffffffffffffffffffffffffffffffff16141515156113e157600080fd5b6000821415611458578273ffffffffffffffffffffffffffffffffffffffff163373ffffffffffffffffffffffffffffffffffffffff167fddf252ad1be2c89b69c2b068fc378daa952ba7f163c4a11628f55a4df523b3ef846040518082815260200191505060405180910390a360019050611466565b6114633384846111f9565b90505b92915050565b600080600061147b8686610989565b915081156115de578590508073ffffffffffffffffffffffffffffffffffffffff16638f4ffcb1338730886040518563ffffffff167c0100000000000000000000000000000000000000000000000000000000028152600401808573ffffffffffffffffffffffffffffffffffffffff1673ffffffffffffffffffffffffffffffffffffffff1681526020018481526020018373ffffffffffffffffffffffffffffffffffffffff1673ffffffffffffffffffffffffffffffffffffffff16815260200180602001828103825283818151815260200191508051906020019080838360005b8381101561157b578082015181840152602081019050611560565b50505050905090810190601f1680156115a85780820380516001836020036101000a031916815260200191505b5095505050505050600060405180830381600087803b15156115c957600080fd5b6102c65a03f115156115da57600080fd5b5050505b81925050509392505050565b6000600860008473ffffffffffffffffffffffffffffffffffffffff1673ffffffffffffffffffffffffffffffffffffffff16815260200190815260200160002060008373ffffffffffffffffffffffffffffffffffffffff1673ffffffffffffffffffffffffffffffffffffffff16815260200190815260200160002060000154905092915050565b600f81565b6020604051908101604052806000815250905600a165627a7a72305820a06a0f47a73b74cb98b97043bc8dd3779c0df8acc03d898bbf3e6cadab7165910029",
  "source": "pragma solidity ^0.4.17;\n\nimport './Cofounded.sol';\nimport './ERC20.sol';\nimport './ERC165.sol';\nimport './ApprovedAllowanceAgent.sol';\n\n// TODO: tackle funding special projects contracts\n\n/// @title an original cofounder based ERC-20 compliant token\n/// @author Mish Ochu\n/// @dev Ref: https://github.com/ethereum/EIPs/issues/721\n//http://solidity.readthedocs.io/en/develop/contracts.html#arguments-for-base-constructors\ncontract OriginalToken is Cofounded, ERC20, ERC165 {\n    struct Allowance {\n      uint256 amount;\n      bool    hasBeenPartiallyWithdrawn;\n    }\n\n    //***** Apparently Optional *****/\n    /// @dev returns the name of the token\n    string public name;\n    /// @dev returns the symbol of the token (e.g. 'OCC')\n    string public symbol;\n    /// @dev returns the number of decimals the tokens use\n    uint8 public decimals;\n    //**********/\n\n    /// @dev  returns the total token supply\n    /// @note implemented as a state variable with an automatic (compiler provided) getter\n    ///       instead of a constant (view/readonly) function.\n    uint256 public totalSupply;\n\n    uint256 constant private MAX_UINT256 = 2**256 - 1;\n\n    mapping (address => uint256) public balances;\n    // TODO: determine if the gas cost for handling the race condition\n    //       (outlined here: https://github.com/ethereum/EIPs/issues/20#issuecomment-263524729)\n    //       is cheaper this way (or this way: https://github.com/Giveth/minime/blob/master/contracts/MiniMeToken.sol#L221-L225)\n    mapping (address => mapping (address => Allowance)) public allowances;\n\n  /// @dev creates the token\n  /// NOTE  passes tokenCofounders to base contract\n  /// see   Cofounded\n  function OriginalToken (address[15] tokenCofounders,\n                          uint256 tokenTotalSupply,\n                          string tokenName,\n                          string tokenSymbol,\n                          uint8 tokenDecimals) Cofounded(tokenCofounders) public {\n    totalSupply = tokenTotalSupply;\n    name = tokenName;\n    symbol = tokenSymbol;\n    decimals = tokenDecimals;\n    \n    // TODO: divvy up initial token supply accross cofounders\n    // TODO: ensure each cofounder gets an equal base distribution\n    // TODO: ensure additional supply to cofounders with commensurate fiduciary activity to guarantee launch\n  }\n\n  function transfer (address to, uint256 value) public returns (bool) {\n    // don't burn these tokens\n    require(to != address(0));\n    // match spec and emit events on 0 value\n    if (value == 0) {\n      Transfer(msg.sender, to, value);\n      return true;\n    }\n\n    return transferBalance (msg.sender, to, value);\n  }\n\n  function transferFrom (address from, address to, uint256 value) public returns (bool success) {\n        Allowance storage allowance = allowances[from][msg.sender];\n        require(balances[from] >= value && allowance.amount >= value);\n\n        if (allowance.amount == 0) {\n          delete allowances[from][msg.sender];\n        } else {\n          allowance.hasBeenPartiallyWithdrawn = true;\n          allowance.amount -= value;\n        }\n\n        balances[to] += value;\n        balances[from] -= value;\n        Transfer(from, to, value);\n        return true;   \n  }\n\n  event ApprovalDenied (address indexed owner, address indexed spender, uint256 currentValue, uint256 value);\n\n  // TODO: test with an unintialized Allowance struct\n  function approve (address spender, uint256 value) public returns (bool success) {\n    Allowance storage allowance = allowances[msg.sender][spender];\n\n    if (value == 0) {\n      delete allowances[msg.sender][spender];\n      Approval(msg.sender, spender, value);\n      return true;\n    }\n\n    if (allowance.hasBeenPartiallyWithdrawn) {\n      delete allowances[msg.sender][spender];\n      ApprovalDenied(msg.sender, spender, allowance.amount, value);\n      return false;\n    } else {\n      allowance.amount = value;\n      Approval(msg.sender, spender, value);\n    }\n  }\n\n  function approveAndCall (address spender, uint256 value, bytes extraData) public returns (bool success) {\n      bool hasSuccess;\n\n      if (hasSuccess = approve(spender, value)) {\n        ApprovedAllowanceAgent agent = ApprovedAllowanceAgent(spender);\n        agent.receiveApproval(msg.sender, value, this, extraData);\n      }\n\n      return hasSuccess;\n    }\n \n\n  // TODO: compare gas cost estimations between this and https://github.com/ConsenSys/Tokens/blob/master/contracts/eip20/EIP20.sol#L39-L45\n  function transferBalance (address from, address to, uint256 value) public returns (bool) {\n    uint256 senderBalance = balances[from];\n    uint256 receiverBalance = balances[to];\n    require(senderBalance >= value);\n    senderBalance -= value;\n    receiverBalance += value;\n    // overflow check (altough one could use https://github.com/OpenZeppelin/zeppelin-solidity/blob/master/contracts/math/SafeMath.sol)\n    require(receiverBalance >= value);\n\n    balances[from] = senderBalance;\n    balances[to] = receiverBalance;\n\n    Transfer(from, to, value);\n    return true;\n  }\n\n \n  // TODO: test with an unintialized Allowance struct\n  function allowance (address owner, address spender) public constant returns (uint256 remaining) {\n    return allowances[owner][spender].amount;\n  }\n\n  function balanceOf (address owner) public constant returns (uint256 balance) {\n    return balances[owner];\n  }\n\n  function supportsInterface (bytes4 interfaceID) external constant returns (bool) {\n    return (interfaceID == InterfaceSignature_ERC165);\n  }\n\n  bytes4 constant InterfaceSignature_ERC165 =\n    bytes4(keccak256('supportsInterface(bytes4)'));\n}\n\n",
  "sourcePath": "/Users/mishochu/Source/occ-contracts/contracts/OriginalToken.sol",
  "compiler": {
    "name": "solc",
    "version": "0.4.18+commit.9cf6e910.Emscripten.clang"
  },
  "schemaVersion": "1.0.1",
  "updatedAt": "2018-01-15T07:06:03.255Z"
}