{
  "contractName": "OriginalToken",
  "abi": [
    {
      "constant": true,
      "inputs": [
        {
          "name": "interfaceID",
          "type": "bytes4"
        }
      ],
      "name": "supportsInterface",
      "outputs": [
        {
          "name": "",
          "type": "bool"
        }
      ],
      "payable": false,
      "stateMutability": "view",
      "type": "function"
    },
    {
      "constant": true,
      "inputs": [],
      "name": "name",
      "outputs": [
        {
          "name": "",
          "type": "string"
        }
      ],
      "payable": false,
      "stateMutability": "view",
      "type": "function"
    },
    {
      "constant": false,
      "inputs": [
        {
          "name": "spender",
          "type": "address"
        },
        {
          "name": "value",
          "type": "uint256"
        }
      ],
      "name": "approve",
      "outputs": [
        {
          "name": "success",
          "type": "bool"
        }
      ],
      "payable": false,
      "stateMutability": "nonpayable",
      "type": "function"
    },
    {
      "constant": true,
      "inputs": [],
      "name": "totalSupply",
      "outputs": [
        {
          "name": "",
          "type": "uint256"
        }
      ],
      "payable": false,
      "stateMutability": "view",
      "type": "function"
    },
    {
      "constant": false,
      "inputs": [
        {
          "name": "from",
          "type": "address"
        },
        {
          "name": "to",
          "type": "address"
        },
        {
          "name": "value",
          "type": "uint256"
        }
      ],
      "name": "transferFrom",
      "outputs": [
        {
          "name": "success",
          "type": "bool"
        }
      ],
      "payable": false,
      "stateMutability": "nonpayable",
      "type": "function"
    },
    {
      "constant": true,
      "inputs": [
        {
          "name": "",
          "type": "address"
        }
      ],
      "name": "balances",
      "outputs": [
        {
          "name": "",
          "type": "uint256"
        }
      ],
      "payable": false,
      "stateMutability": "view",
      "type": "function"
    },
    {
      "constant": true,
      "inputs": [
        {
          "name": "",
          "type": "uint256"
        }
      ],
      "name": "cofounders",
      "outputs": [
        {
          "name": "",
          "type": "address"
        }
      ],
      "payable": false,
      "stateMutability": "view",
      "type": "function"
    },
    {
      "constant": true,
      "inputs": [
        {
          "name": "",
          "type": "address"
        }
      ],
      "name": "cofounderIds",
      "outputs": [
        {
          "name": "",
          "type": "uint256"
        }
      ],
      "payable": false,
      "stateMutability": "view",
      "type": "function"
    },
    {
      "constant": true,
      "inputs": [],
      "name": "decimals",
      "outputs": [
        {
          "name": "",
          "type": "uint8"
        }
      ],
      "payable": false,
      "stateMutability": "view",
      "type": "function"
    },
    {
      "constant": true,
      "inputs": [],
      "name": "getCofounderCount",
      "outputs": [
        {
          "name": "",
          "type": "uint256"
        }
      ],
      "payable": false,
      "stateMutability": "view",
      "type": "function"
    },
    {
      "constant": true,
      "inputs": [],
      "name": "airdropCampaign",
      "outputs": [
        {
          "name": "",
          "type": "address"
        }
      ],
      "payable": false,
      "stateMutability": "view",
      "type": "function"
    },
    {
      "constant": true,
      "inputs": [],
      "name": "founder",
      "outputs": [
        {
          "name": "",
          "type": "address"
        }
      ],
      "payable": false,
      "stateMutability": "view",
      "type": "function"
    },
    {
      "constant": true,
      "inputs": [
        {
          "name": "",
          "type": "address"
        },
        {
          "name": "",
          "type": "address"
        }
      ],
      "name": "allowances",
      "outputs": [
        {
          "name": "amount",
          "type": "uint256"
        },
        {
          "name": "hasBeenPartiallyWithdrawn",
          "type": "bool"
        }
      ],
      "payable": false,
      "stateMutability": "view",
      "type": "function"
    },
    {
      "constant": true,
      "inputs": [
        {
          "name": "owner",
          "type": "address"
        }
      ],
      "name": "balanceOf",
      "outputs": [
        {
          "name": "balance",
          "type": "uint256"
        }
      ],
      "payable": false,
      "stateMutability": "view",
      "type": "function"
    },
    {
      "constant": true,
      "inputs": [],
      "name": "getCofounders",
      "outputs": [
        {
          "name": "",
          "type": "address[]"
        }
      ],
      "payable": false,
      "stateMutability": "view",
      "type": "function"
    },
    {
      "constant": true,
      "inputs": [],
      "name": "symbol",
      "outputs": [
        {
          "name": "",
          "type": "string"
        }
      ],
      "payable": false,
      "stateMutability": "view",
      "type": "function"
    },
    {
      "constant": false,
      "inputs": [
        {
          "name": "from",
          "type": "address"
        },
        {
          "name": "to",
          "type": "address"
        },
        {
          "name": "value",
          "type": "uint256"
        }
      ],
      "name": "transferBalance",
      "outputs": [
        {
          "name": "",
          "type": "bool"
        }
      ],
      "payable": false,
      "stateMutability": "nonpayable",
      "type": "function"
    },
    {
      "constant": false,
      "inputs": [
        {
          "name": "to",
          "type": "address"
        },
        {
          "name": "value",
          "type": "uint256"
        }
      ],
      "name": "transfer",
      "outputs": [
        {
          "name": "",
          "type": "bool"
        }
      ],
      "payable": false,
      "stateMutability": "nonpayable",
      "type": "function"
    },
    {
      "constant": false,
      "inputs": [
        {
          "name": "spender",
          "type": "address"
        },
        {
          "name": "value",
          "type": "uint256"
        },
        {
          "name": "extraData",
          "type": "bytes"
        }
      ],
      "name": "approveAndCall",
      "outputs": [
        {
          "name": "success",
          "type": "bool"
        }
      ],
      "payable": false,
      "stateMutability": "nonpayable",
      "type": "function"
    },
    {
      "constant": true,
      "inputs": [
        {
          "name": "owner",
          "type": "address"
        },
        {
          "name": "spender",
          "type": "address"
        }
      ],
      "name": "allowance",
      "outputs": [
        {
          "name": "remaining",
          "type": "uint256"
        }
      ],
      "payable": false,
      "stateMutability": "view",
      "type": "function"
    },
    {
      "constant": true,
      "inputs": [],
      "name": "MAX_COFOUNDERS",
      "outputs": [
        {
          "name": "",
          "type": "uint8"
        }
      ],
      "payable": false,
      "stateMutability": "view",
      "type": "function"
    },
    {
      "inputs": [
        {
          "name": "tokenCofounders",
          "type": "address[15]"
        },
        {
          "name": "tokenAirdropCampaign",
          "type": "address"
        },
        {
          "name": "tokenTotalSupply",
          "type": "uint256"
        },
        {
          "name": "tokenName",
          "type": "string"
        },
        {
          "name": "tokenSymbol",
          "type": "string"
        },
        {
          "name": "tokenDecimals",
          "type": "uint8"
        },
        {
          "name": "cofounderDistribution",
          "type": "uint256"
        }
      ],
      "payable": false,
      "stateMutability": "nonpayable",
      "type": "constructor"
    },
    {
      "anonymous": false,
      "inputs": [
        {
          "indexed": true,
          "name": "owner",
          "type": "address"
        },
        {
          "indexed": true,
          "name": "spender",
          "type": "address"
        },
        {
          "indexed": false,
          "name": "currentValue",
          "type": "uint256"
        },
        {
          "indexed": false,
          "name": "value",
          "type": "uint256"
        }
      ],
      "name": "ApprovalDenied",
      "type": "event"
    },
    {
      "anonymous": false,
      "inputs": [
        {
          "indexed": true,
          "name": "from",
          "type": "address"
        },
        {
          "indexed": true,
          "name": "to",
          "type": "address"
        },
        {
          "indexed": false,
          "name": "value",
          "type": "uint256"
        }
      ],
      "name": "Transfer",
      "type": "event"
    },
    {
      "anonymous": false,
      "inputs": [
        {
          "indexed": true,
          "name": "owner",
          "type": "address"
        },
        {
          "indexed": true,
          "name": "spender",
          "type": "address"
        },
        {
          "indexed": false,
          "name": "value",
          "type": "uint256"
        }
      ],
      "name": "Approval",
      "type": "event"
    }
  ],
  "bytecode": "0x606060405234156200001057600080fd5b604051620020f1380380620020f1833981016040528090816101e0018051906020019091908051906020019091908051820191906020018051820191906020018051906020019091908051906020019091905050866000806000806002805480600101828162000081919062000674565b9160005260206000209001600033600160006101000a81548173ffffffffffffffffffffffffffffffffffffffff021916908373ffffffffffffffffffffffffffffffffffffffff1602179055909190916101000a81548173ffffffffffffffffffffffffffffffffffffffff021916908373ffffffffffffffffffffffffffffffffffffffff16021790555050600093505b600f60ff168460ff161015620002d857848460ff16600f811015156200013657fe5b60200201519250600073ffffffffffffffffffffffffffffffffffffffff168373ffffffffffffffffffffffffffffffffffffffff1614158015620001c95750600160009054906101000a900473ffffffffffffffffffffffffffffffffffffffff1673ffffffffffffffffffffffffffffffffffffffff168373ffffffffffffffffffffffffffffffffffffffff1614155b801562000214575060008060008573ffffffffffffffffffffffffffffffffffffffff1673ffffffffffffffffffffffffffffffffffffffff16815260200190815260200160002054145b91508115620002ca5760016002805480600101828162000235919062000674565b9160005260206000209001600086909190916101000a81548173ffffffffffffffffffffffffffffffffffffffff021916908373ffffffffffffffffffffffffffffffffffffffff160217905550039050806000808573ffffffffffffffffffffffffffffffffffffffff1673ffffffffffffffffffffffffffffffffffffffff168152602001908152602001600020819055505b838060010194505062000114565b5050505050600073ffffffffffffffffffffffffffffffffffffffff168673ffffffffffffffffffffffffffffffffffffffff16141515156200031a57600080fd5b6000851115156200032a57600080fd5b60008260ff161115156200033d57600080fd5b6000811180156200034d57508085115b15156200035957600080fd5b85600360016101000a81548173ffffffffffffffffffffffffffffffffffffffff021916908373ffffffffffffffffffffffffffffffffffffffff160217905550846007819055508360049080519060200190620003b9929190620006a3565b508260059080519060200190620003d2929190620006a3565b5081600660006101000a81548160ff021916908360ff1602179055506200040e85826200041b6401000000000262001713176401000000009004565b5050505050505062000752565b60008060008060003373ffffffffffffffffffffffffffffffffffffffff1673ffffffffffffffffffffffffffffffffffffffff1681526020019081526020016000205490506002818154811015156200047157fe5b906000526020600020900160009054906101000a900473ffffffffffffffffffffffffffffffffffffffff1673ffffffffffffffffffffffffffffffffffffffff163373ffffffffffffffffffffffffffffffffffffffff16141515620004d757600080fd5b600360009054906101000a900460ff16151515620004f457600080fd5b6001600360006101000a81548160ff021916908315150217905550600092505b600f60ff168360ff161015620006075760028360ff168154811015156200053757fe5b906000526020600020900160009054906101000a900473ffffffffffffffffffffffffffffffffffffffff169150600073ffffffffffffffffffffffffffffffffffffffff168273ffffffffffffffffffffffffffffffffffffffff161415620005a15762000607565b83850394508385111515620005b557600080fd5b83600860008473ffffffffffffffffffffffffffffffffffffffff1673ffffffffffffffffffffffffffffffffffffffff16815260200190815260200160002081905550828060010193505062000514565b8460086000600360019054906101000a900473ffffffffffffffffffffffffffffffffffffffff1673ffffffffffffffffffffffffffffffffffffffff1673ffffffffffffffffffffffffffffffffffffffff168152602001908152602001600020819055505050505050565b8154818355818115116200069e578183600052602060002091820191016200069d91906200072a565b5b505050565b828054600181600116156101000203166002900490600052602060002090601f016020900481019282601f10620006e657805160ff191683800117855562000717565b8280016001018555821562000717579182015b8281111562000716578251825591602001919060010190620006f9565b5b5090506200072691906200072a565b5090565b6200074f91905b808211156200074b57600081600090555060010162000731565b5090565b90565b61198f80620007626000396000f30060606040526004361061011d576000357c0100000000000000000000000000000000000000000000000000000000900463ffffffff16806301ffc9a71461012257806306fdde031461017c578063095ea7b31461020a57806318160ddd1461026457806323b872dd1461028d57806327e235e3146103065780632add5a50146103535780632e572393146103b6578063313ce567146104035780633cb8375114610432578063476b09131461045b5780634d853ee5146104b057806355b6ed5c1461050557806370a082311461057c57806370d70e9b146105c957806395d89b4114610633578063a606b94a146106c1578063a9059cbb1461073a578063cae9ca5114610794578063dd62ed3e14610831578063dd6ae5371461089d575b600080fd5b341561012d57600080fd5b61016260048080357bffffffffffffffffffffffffffffffffffffffffffffffffffffffff19169060200190919050506108cc565b604051808215151515815260200191505060405180910390f35b341561018757600080fd5b61018f61094b565b6040518080602001828103825283818151815260200191508051906020019080838360005b838110156101cf5780820151818401526020810190506101b4565b50505050905090810190601f1680156101fc5780820380516001836020036101000a031916815260200191505b509250505060405180910390f35b341561021557600080fd5b61024a600480803573ffffffffffffffffffffffffffffffffffffffff169060200190919080359060200190919050506109e9565b604051808215151515815260200191505060405180910390f35b341561026f57600080fd5b610277610d1e565b6040518082815260200191505060405180910390f35b341561029857600080fd5b6102ec600480803573ffffffffffffffffffffffffffffffffffffffff1690602001909190803573ffffffffffffffffffffffffffffffffffffffff16906020019091908035906020019091905050610d24565b604051808215151515815260200191505060405180910390f35b341561031157600080fd5b61033d600480803573ffffffffffffffffffffffffffffffffffffffff16906020019091905050610feb565b6040518082815260200191505060405180910390f35b341561035e57600080fd5b6103746004808035906020019091905050611003565b604051808273ffffffffffffffffffffffffffffffffffffffff1673ffffffffffffffffffffffffffffffffffffffff16815260200191505060405180910390f35b34156103c157600080fd5b6103ed600480803573ffffffffffffffffffffffffffffffffffffffff16906020019091905050611042565b6040518082815260200191505060405180910390f35b341561040e57600080fd5b61041661105a565b604051808260ff1660ff16815260200191505060405180910390f35b341561043d57600080fd5b61044561106d565b6040518082815260200191505060405180910390f35b341561046657600080fd5b61046e61107a565b604051808273ffffffffffffffffffffffffffffffffffffffff1673ffffffffffffffffffffffffffffffffffffffff16815260200191505060405180910390f35b34156104bb57600080fd5b6104c36110a0565b604051808273ffffffffffffffffffffffffffffffffffffffff1673ffffffffffffffffffffffffffffffffffffffff16815260200191505060405180910390f35b341561051057600080fd5b61055b600480803573ffffffffffffffffffffffffffffffffffffffff1690602001909190803573ffffffffffffffffffffffffffffffffffffffff169060200190919050506110c6565b60405180838152602001821515151581526020019250505060405180910390f35b341561058757600080fd5b6105b3600480803573ffffffffffffffffffffffffffffffffffffffff16906020019091905050611104565b6040518082815260200191505060405180910390f35b34156105d457600080fd5b6105dc61114d565b6040518080602001828103825283818151815260200191508051906020019060200280838360005b8381101561061f578082015181840152602081019050610604565b505050509050019250505060405180910390f35b341561063e57600080fd5b6106466111e1565b6040518080602001828103825283818151815260200191508051906020019080838360005b8381101561068657808201518184015260208101905061066b565b50505050905090810190601f1680156106b35780820380516001836020036101000a031916815260200191505b509250505060405180910390f35b34156106cc57600080fd5b610720600480803573ffffffffffffffffffffffffffffffffffffffff1690602001909190803573ffffffffffffffffffffffffffffffffffffffff1690602001909190803590602001909190505061127f565b604051808215151515815260200191505060405180910390f35b341561074557600080fd5b61077a600480803573ffffffffffffffffffffffffffffffffffffffff1690602001909190803590602001909190505061142a565b604051808215151515815260200191505060405180910390f35b341561079f57600080fd5b610817600480803573ffffffffffffffffffffffffffffffffffffffff1690602001909190803590602001909190803590602001908201803590602001908080601f016020809104026020016040519081016040528093929190818152602001838380828437820191505050505050919050506114f2565b604051808215151515815260200191505060405180910390f35b341561083c57600080fd5b610887600480803573ffffffffffffffffffffffffffffffffffffffff1690602001909190803573ffffffffffffffffffffffffffffffffffffffff16906020019091905050611670565b6040518082815260200191505060405180910390f35b34156108a857600080fd5b6108b06116fa565b604051808260ff1660ff16815260200191505060405180910390f35b600060405180807f737570706f727473496e74657266616365286279746573342900000000000000815250601901905060405180910390207bffffffffffffffffffffffffffffffffffffffffffffffffffffffff1916827bffffffffffffffffffffffffffffffffffffffffffffffffffffffff1916149050919050565b60048054600181600116156101000203166002900480601f0160208091040260200160405190810160405280929190818152602001828054600181600116156101000203166002900480156109e15780601f106109b6576101008083540402835291602001916109e1565b820191906000526020600020905b8154815290600101906020018083116109c457829003601f168201915b505050505081565b600080600960003373ffffffffffffffffffffffffffffffffffffffff1673ffffffffffffffffffffffffffffffffffffffff16815260200190815260200160002060008573ffffffffffffffffffffffffffffffffffffffff1673ffffffffffffffffffffffffffffffffffffffff16815260200190815260200160002090506000831415610b7c57600960003373ffffffffffffffffffffffffffffffffffffffff1673ffffffffffffffffffffffffffffffffffffffff16815260200190815260200160002060008573ffffffffffffffffffffffffffffffffffffffff1673ffffffffffffffffffffffffffffffffffffffff1681526020019081526020016000206000808201600090556001820160006101000a81549060ff021916905550508373ffffffffffffffffffffffffffffffffffffffff163373ffffffffffffffffffffffffffffffffffffffff167f8c5be1e5ebec7d5bd14f71427d1e84f3dd0314c0f7b2291e5b200ac8c7c3b925856040518082815260200191505060405180910390a360019150610d17565b8060010160009054906101000a900460ff1615610ca857600960003373ffffffffffffffffffffffffffffffffffffffff1673ffffffffffffffffffffffffffffffffffffffff16815260200190815260200160002060008573ffffffffffffffffffffffffffffffffffffffff1673ffffffffffffffffffffffffffffffffffffffff1681526020019081526020016000206000808201600090556001820160006101000a81549060ff021916905550508373ffffffffffffffffffffffffffffffffffffffff163373ffffffffffffffffffffffffffffffffffffffff167f8e5b20b759a344163a5384df8ad0a0de915a6cf52f608c31f5f86728fc167c1e836000015486604051808381526020018281526020019250505060405180910390a360009150610d17565b8281600001819055508373ffffffffffffffffffffffffffffffffffffffff163373ffffffffffffffffffffffffffffffffffffffff167f8c5be1e5ebec7d5bd14f71427d1e84f3dd0314c0f7b2291e5b200ac8c7c3b925856040518082815260200191505060405180910390a35b5092915050565b60075481565b600080600960008673ffffffffffffffffffffffffffffffffffffffff1673ffffffffffffffffffffffffffffffffffffffff16815260200190815260200160002060003373ffffffffffffffffffffffffffffffffffffffff1673ffffffffffffffffffffffffffffffffffffffff168152602001908152602001600020905082600860008773ffffffffffffffffffffffffffffffffffffffff1673ffffffffffffffffffffffffffffffffffffffff1681526020019081526020016000205410158015610df8575082816000015410155b1515610e0357600080fd5b600081600001541415610eb057600960008673ffffffffffffffffffffffffffffffffffffffff1673ffffffffffffffffffffffffffffffffffffffff16815260200190815260200160002060003373ffffffffffffffffffffffffffffffffffffffff1673ffffffffffffffffffffffffffffffffffffffff1681526020019081526020016000206000808201600090556001820160006101000a81549060ff02191690555050610ee0565b60018160010160006101000a81548160ff0219169083151502179055508281600001600082825403925050819055505b82600860008673ffffffffffffffffffffffffffffffffffffffff1673ffffffffffffffffffffffffffffffffffffffff1681526020019081526020016000206000828254019250508190555082600860008773ffffffffffffffffffffffffffffffffffffffff1673ffffffffffffffffffffffffffffffffffffffff168152602001908152602001600020600082825403925050819055508373ffffffffffffffffffffffffffffffffffffffff168573ffffffffffffffffffffffffffffffffffffffff167fddf252ad1be2c89b69c2b068fc378daa952ba7f163c4a11628f55a4df523b3ef856040518082815260200191505060405180910390a360019150509392505050565b60086020528060005260406000206000915090505481565b60028181548110151561101257fe5b90600052602060002090016000915054906101000a900473ffffffffffffffffffffffffffffffffffffffff1681565b60006020528060005260406000206000915090505481565b600660009054906101000a900460ff1681565b6000600280549050905090565b600360019054906101000a900473ffffffffffffffffffffffffffffffffffffffff1681565b600160009054906101000a900473ffffffffffffffffffffffffffffffffffffffff1681565b6009602052816000526040600020602052806000526040600020600091509150508060000154908060010160009054906101000a900460ff16905082565b6000600860008373ffffffffffffffffffffffffffffffffffffffff1673ffffffffffffffffffffffffffffffffffffffff168152602001908152602001600020549050919050565b6111556116ff565b60028054806020026020016040519081016040528092919081815260200182805480156111d757602002820191906000526020600020905b8160009054906101000a900473ffffffffffffffffffffffffffffffffffffffff1673ffffffffffffffffffffffffffffffffffffffff168152602001906001019080831161118d575b5050505050905090565b60058054600181600116156101000203166002900480601f0160208091040260200160405190810160405280929190818152602001828054600181600116156101000203166002900480156112775780601f1061124c57610100808354040283529160200191611277565b820191906000526020600020905b81548152906001019060200180831161125a57829003601f168201915b505050505081565b6000806000600860008773ffffffffffffffffffffffffffffffffffffffff1673ffffffffffffffffffffffffffffffffffffffff168152602001908152602001600020549150600860008673ffffffffffffffffffffffffffffffffffffffff1673ffffffffffffffffffffffffffffffffffffffff16815260200190815260200160002054905083821015151561131757600080fd5b8382039150838101905083811015151561133057600080fd5b81600860008873ffffffffffffffffffffffffffffffffffffffff1673ffffffffffffffffffffffffffffffffffffffff1681526020019081526020016000208190555080600860008773ffffffffffffffffffffffffffffffffffffffff1673ffffffffffffffffffffffffffffffffffffffff168152602001908152602001600020819055508473ffffffffffffffffffffffffffffffffffffffff168673ffffffffffffffffffffffffffffffffffffffff167fddf252ad1be2c89b69c2b068fc378daa952ba7f163c4a11628f55a4df523b3ef866040518082815260200191505060405180910390a36001925050509392505050565b60008073ffffffffffffffffffffffffffffffffffffffff168373ffffffffffffffffffffffffffffffffffffffff161415151561146757600080fd5b60008214156114de578273ffffffffffffffffffffffffffffffffffffffff163373ffffffffffffffffffffffffffffffffffffffff167fddf252ad1be2c89b69c2b068fc378daa952ba7f163c4a11628f55a4df523b3ef846040518082815260200191505060405180910390a3600190506114ec565b6114e933848461127f565b90505b92915050565b600080600061150186866109e9565b91508115611664578590508073ffffffffffffffffffffffffffffffffffffffff16638f4ffcb1338730886040518563ffffffff167c0100000000000000000000000000000000000000000000000000000000028152600401808573ffffffffffffffffffffffffffffffffffffffff1673ffffffffffffffffffffffffffffffffffffffff1681526020018481526020018373ffffffffffffffffffffffffffffffffffffffff1673ffffffffffffffffffffffffffffffffffffffff16815260200180602001828103825283818151815260200191508051906020019080838360005b838110156116015780820151818401526020810190506115e6565b50505050905090810190601f16801561162e5780820380516001836020036101000a031916815260200191505b5095505050505050600060405180830381600087803b151561164f57600080fd5b6102c65a03f1151561166057600080fd5b5050505b81925050509392505050565b6000600960008473ffffffffffffffffffffffffffffffffffffffff1673ffffffffffffffffffffffffffffffffffffffff16815260200190815260200160002060008373ffffffffffffffffffffffffffffffffffffffff1673ffffffffffffffffffffffffffffffffffffffff16815260200190815260200160002060000154905092915050565b600f81565b602060405190810160405280600081525090565b60008060008060003373ffffffffffffffffffffffffffffffffffffffff1673ffffffffffffffffffffffffffffffffffffffff16815260200190815260200160002054905060028181548110151561176857fe5b906000526020600020900160009054906101000a900473ffffffffffffffffffffffffffffffffffffffff1673ffffffffffffffffffffffffffffffffffffffff163373ffffffffffffffffffffffffffffffffffffffff161415156117cd57600080fd5b600360009054906101000a900460ff161515156117e957600080fd5b6001600360006101000a81548160ff021916908315150217905550600092505b600f60ff168360ff1610156118f65760028360ff1681548110151561182a57fe5b906000526020600020900160009054906101000a900473ffffffffffffffffffffffffffffffffffffffff169150600073ffffffffffffffffffffffffffffffffffffffff168273ffffffffffffffffffffffffffffffffffffffff161415611892576118f6565b838503945083851115156118a557600080fd5b83600860008473ffffffffffffffffffffffffffffffffffffffff1673ffffffffffffffffffffffffffffffffffffffff168152602001908152602001600020819055508280600101935050611809565b8460086000600360019054906101000a900473ffffffffffffffffffffffffffffffffffffffff1673ffffffffffffffffffffffffffffffffffffffff1673ffffffffffffffffffffffffffffffffffffffff1681526020019081526020016000208190555050505050505600a165627a7a7230582025ff5ea45babb1c3d4df4a6b8d0c88b1f1e32c5b2f97214acd6cae3f9cc1218b0029",
  "source": "pragma solidity ^0.4.17;\n\nimport './Cofounded.sol';\nimport './ERC20.sol';\nimport './ERC165.sol';\nimport './ApprovedAllowanceAgent.sol';\n\n// TODO: tackle funding special projects contracts\n\n/// @title an original cofounder based ERC-20 compliant token\n/// @author Mish Ochu\n/// @dev Ref: https://github.com/ethereum/EIPs/issues/721\n//http://solidity.readthedocs.io/en/develop/contracts.html#arguments-for-base-constructors\ncontract OriginalToken is Cofounded, ERC20, ERC165 {\n    bool private hasExecutedCofounderDistribution;\n    address public airdropCampaign;\n    struct Allowance {\n      uint256 amount;\n      bool    hasBeenPartiallyWithdrawn;\n    }\n\n    //***** Apparently Optional *****/\n    /// @dev returns the name of the token\n    string public name;\n    /// @dev returns the symbol of the token (e.g. 'OCC')\n    string public symbol;\n    /// @dev returns the number of decimals the tokens use\n    uint8 public decimals;\n    //**********/\n\n    /// @dev  returns the total token supply\n    /// @note implemented as a state variable with an automatic (compiler provided) getter\n    ///       instead of a constant (view/readonly) function.\n    uint256 public totalSupply;\n\n    uint256 constant private MAX_UINT256 = 2**256 - 1;\n\n    mapping (address => uint256) public balances;\n    // TODO: determine if the gas cost for handling the race condition\n    //       (outlined here: https://github.com/ethereum/EIPs/issues/20#issuecomment-263524729)\n    //       is cheaper this way (or this way: https://github.com/Giveth/minime/blob/master/contracts/MiniMeToken.sol#L221-L225)\n    mapping (address => mapping (address => Allowance)) public allowances;\n\n  /// @dev creates the token\n  /// NOTE  passes tokenCofounders to base contract\n  /// see   Cofounded\n  function OriginalToken (address[15] tokenCofounders,\n                          address tokenAirdropCampaign,\n                          uint256 tokenTotalSupply,\n                          string tokenName,\n                          string tokenSymbol,\n                          uint8 tokenDecimals,\n                          uint256 cofounderDistribution) Cofounded(tokenCofounders) public {\n    require(tokenAirdropCampaign != address(0));\n    require(tokenTotalSupply > 0);\n    require(tokenDecimals > 0);\n    require(cofounderDistribution > 0 && tokenTotalSupply > cofounderDistribution);\n\n    // TODO: figure out why these fail in migration\n    //require(bytes(tokenName).length > 0);\n    //require(bytes(tokenSymbol).length > 0);\n\n    airdropCampaign = tokenAirdropCampaign;\n    totalSupply = tokenTotalSupply;\n    name = tokenName;\n    symbol = tokenSymbol;\n    decimals = tokenDecimals;\n\n    // TODO: divvy up initial token supply accross cofounders\n    // TODO: ensure each cofounder gets an equal base distribution\n    distributeToCofounders(tokenTotalSupply, cofounderDistribution);\n  }\n\n  function distributeToCofounders (uint256 initialSupply, uint256 cofounderDistribution) private restricted {\n    require(!hasExecutedCofounderDistribution);\n\n    hasExecutedCofounderDistribution = true;\n\n    for (uint8 x = 0; x < MAX_COFOUNDERS; x++) {\n      address cofounder = cofounders[x];\n\n      if (cofounder == address(0)) break;\n\n      initialSupply -= cofounderDistribution;\n      // there should be some left over for the airdrop campaign\n      // otherwise don't create this contract\n      require(initialSupply > cofounderDistribution);\n      balances[cofounder] = cofounderDistribution;\n    }\n\n    balances[airdropCampaign] = initialSupply;\n  }\n\n  function transfer (address to, uint256 value) public returns (bool) {\n    // don't burn these tokens\n    require(to != address(0));\n    // match spec and emit events on 0 value\n    if (value == 0) {\n      Transfer(msg.sender, to, value);\n      return true;\n    }\n\n    return transferBalance (msg.sender, to, value);\n  }\n\n  function transferFrom (address from, address to, uint256 value) public returns (bool success) {\n        Allowance storage allowance = allowances[from][msg.sender];\n        require(balances[from] >= value && allowance.amount >= value);\n\n        if (allowance.amount == 0) {\n          delete allowances[from][msg.sender];\n        } else {\n          allowance.hasBeenPartiallyWithdrawn = true;\n          allowance.amount -= value;\n        }\n\n        balances[to] += value;\n        balances[from] -= value;\n        Transfer(from, to, value);\n        return true;   \n  }\n\n  event ApprovalDenied (address indexed owner, address indexed spender, uint256 currentValue, uint256 value);\n\n  // TODO: test with an unintialized Allowance struct\n  function approve (address spender, uint256 value) public returns (bool success) {\n    Allowance storage allowance = allowances[msg.sender][spender];\n\n    if (value == 0) {\n      delete allowances[msg.sender][spender];\n      Approval(msg.sender, spender, value);\n      return true;\n    }\n\n    if (allowance.hasBeenPartiallyWithdrawn) {\n      delete allowances[msg.sender][spender];\n      ApprovalDenied(msg.sender, spender, allowance.amount, value);\n      return false;\n    } else {\n      allowance.amount = value;\n      Approval(msg.sender, spender, value);\n    }\n  }\n\n  function approveAndCall (address spender, uint256 value, bytes extraData) public returns (bool success) {\n      bool hasSuccess;\n\n      if (hasSuccess = approve(spender, value)) {\n        ApprovedAllowanceAgent agent = ApprovedAllowanceAgent(spender);\n        agent.receiveApproval(msg.sender, value, this, extraData);\n      }\n\n      return hasSuccess;\n    }\n \n\n  // TODO: compare gas cost estimations between this and https://github.com/ConsenSys/Tokens/blob/master/contracts/eip20/EIP20.sol#L39-L45\n  function transferBalance (address from, address to, uint256 value) public returns (bool) {\n    uint256 senderBalance = balances[from];\n    uint256 receiverBalance = balances[to];\n    require(senderBalance >= value);\n    senderBalance -= value;\n    receiverBalance += value;\n    // overflow check (altough one could use https://github.com/OpenZeppelin/zeppelin-solidity/blob/master/contracts/math/SafeMath.sol)\n    require(receiverBalance >= value);\n\n    balances[from] = senderBalance;\n    balances[to] = receiverBalance;\n\n    Transfer(from, to, value);\n    return true;\n  }\n\n \n  // TODO: test with an unintialized Allowance struct\n  function allowance (address owner, address spender) public constant returns (uint256 remaining) {\n    return allowances[owner][spender].amount;\n  }\n\n  function balanceOf (address owner) public constant returns (uint256 balance) {\n    return balances[owner];\n  }\n\n  function supportsInterface (bytes4 interfaceID) external constant returns (bool) {\n    return (interfaceID == InterfaceSignature_ERC165);\n  }\n\n  bytes4 constant InterfaceSignature_ERC165 =\n    bytes4(keccak256('supportsInterface(bytes4)'));\n}\n\n",
  "sourcePath": "/Users/mishochu/Source/occ-contracts/contracts/OriginalToken.sol",
  "compiler": {
    "name": "solc",
    "version": "0.4.18+commit.9cf6e910.Emscripten.clang"
  },
  "schemaVersion": "1.0.1",
  "updatedAt": "2018-01-17T19:46:47.962Z"
}