{
  "contractName": "TestCofoundedRestricted",
  "abi": [
    {
      "constant": true,
      "inputs": [
        {
          "name": "",
          "type": "uint256"
        }
      ],
      "name": "cofounders",
      "outputs": [
        {
          "name": "",
          "type": "address"
        }
      ],
      "payable": false,
      "stateMutability": "view",
      "type": "function"
    },
    {
      "constant": true,
      "inputs": [
        {
          "name": "",
          "type": "address"
        }
      ],
      "name": "cofounderIndices",
      "outputs": [
        {
          "name": "",
          "type": "uint256"
        }
      ],
      "payable": false,
      "stateMutability": "view",
      "type": "function"
    },
    {
      "constant": true,
      "inputs": [],
      "name": "getCofounderCount",
      "outputs": [
        {
          "name": "",
          "type": "uint256"
        }
      ],
      "payable": false,
      "stateMutability": "view",
      "type": "function"
    },
    {
      "constant": true,
      "inputs": [],
      "name": "getCofounders",
      "outputs": [
        {
          "name": "",
          "type": "address[]"
        }
      ],
      "payable": false,
      "stateMutability": "view",
      "type": "function"
    },
    {
      "constant": true,
      "inputs": [],
      "name": "restrictedProperty",
      "outputs": [
        {
          "name": "",
          "type": "uint8"
        }
      ],
      "payable": false,
      "stateMutability": "view",
      "type": "function"
    },
    {
      "constant": false,
      "inputs": [
        {
          "name": "value",
          "type": "uint8"
        }
      ],
      "name": "setRestrictedProperty",
      "outputs": [],
      "payable": false,
      "stateMutability": "nonpayable",
      "type": "function"
    },
    {
      "inputs": [
        {
          "name": "contractCofounders",
          "type": "address[]"
        }
      ],
      "payable": false,
      "stateMutability": "nonpayable",
      "type": "constructor"
    }
  ],
  "bytecode": "0x6060604052341561000f57600080fd5b6040516106d63803806106d68339810160405280805182019190505080600080600080600180548060010182816100469190610240565b9160005260206000209001600033909190916101000a81548173ffffffffffffffffffffffffffffffffffffffff021916908373ffffffffffffffffffffffffffffffffffffffff16021790555050600093505b84518460ff16101561023557848460ff168151811015156100b757fe5b906020019060200201519250600073ffffffffffffffffffffffffffffffffffffffff168373ffffffffffffffffffffffffffffffffffffffff161415801561012c57503373ffffffffffffffffffffffffffffffffffffffff168373ffffffffffffffffffffffffffffffffffffffff1614155b8015610176575060008060008573ffffffffffffffffffffffffffffffffffffffff1673ffffffffffffffffffffffffffffffffffffffff16815260200190815260200160002054145b915081156102285760018080548060010182816101939190610240565b9160005260206000209001600086909190916101000a81548173ffffffffffffffffffffffffffffffffffffffff021916908373ffffffffffffffffffffffffffffffffffffffff160217905550039050806000808573ffffffffffffffffffffffffffffffffffffffff1673ffffffffffffffffffffffffffffffffffffffff168152602001908152602001600020819055505b838060010194505061009a565b505050505050610291565b81548183558181151161026757818360005260206000209182019101610266919061026c565b5b505050565b61028e91905b8082111561028a576000816000905550600101610272565b5090565b90565b610436806102a06000396000f300606060405260043610610078576000357c0100000000000000000000000000000000000000000000000000000000900463ffffffff1680632add5a501461007d578063384bfacb146100e05780633cb837511461012d57806370d70e9b14610156578063ab11da21146101c0578063c41baec4146101ef575b600080fd5b341561008857600080fd5b61009e6004808035906020019091905050610215565b604051808273ffffffffffffffffffffffffffffffffffffffff1673ffffffffffffffffffffffffffffffffffffffff16815260200191505060405180910390f35b34156100eb57600080fd5b610117600480803573ffffffffffffffffffffffffffffffffffffffff16906020019091905050610254565b6040518082815260200191505060405180910390f35b341561013857600080fd5b61014061026c565b6040518082815260200191505060405180910390f35b341561016157600080fd5b610169610279565b6040518080602001828103825283818151815260200191508051906020019060200280838360005b838110156101ac578082015181840152602081019050610191565b505050509050019250505060405180910390f35b34156101cb57600080fd5b6101d361030d565b604051808260ff1660ff16815260200191505060405180910390f35b34156101fa57600080fd5b610213600480803560ff16906020019091905050610320565b005b60018181548110151561022457fe5b90600052602060002090016000915054906101000a900473ffffffffffffffffffffffffffffffffffffffff1681565b60006020528060005260406000206000915090505481565b6000600180549050905090565b6102816103f6565b600180548060200260200160405190810160405280929190818152602001828054801561030357602002820191906000526020600020905b8160009054906101000a900473ffffffffffffffffffffffffffffffffffffffff1673ffffffffffffffffffffffffffffffffffffffff16815260200190600101908083116102b9575b5050505050905090565b600260009054906101000a900460ff1681565b60008060003373ffffffffffffffffffffffffffffffffffffffff1673ffffffffffffffffffffffffffffffffffffffff16815260200190815260200160002054905060018181548110151561037257fe5b906000526020600020900160009054906101000a900473ffffffffffffffffffffffffffffffffffffffff1673ffffffffffffffffffffffffffffffffffffffff163373ffffffffffffffffffffffffffffffffffffffff161415156103d757600080fd5b81600260006101000a81548160ff021916908360ff1602179055505050565b6020604051908101604052806000815250905600a165627a7a72305820e46d59b39ed09549de2550c4af89f89b58da16929fa37bbbaeed74859ba9b1540029",
  "source": "pragma solidity ^0.4.17;\n\nimport './Cofounded.sol'; \n\ncontract TestCofoundedRestricted is Cofounded {\n  uint8 public restrictedProperty;\n\n  function TestCofoundedRestricted (address[] contractCofounders) Cofounded(contractCofounders) public { }\n\n  function setRestrictedProperty (uint8 value) public restricted {\n    restrictedProperty = value;\n  }\n}\n\n",
  "sourcePath": "/Users/mishochu/Source/occ/occ-contracts/contracts/TestCofoundedRestricted.sol",
  "compiler": {
    "name": "solc",
    "version": "0.4.18+commit.9cf6e910.Emscripten.clang"
  },
  "schemaVersion": "1.0.1",
  "updatedAt": "2018-02-01T13:50:29.810Z"
}